:0403BC00686A6C6E91
:0703A700D291D290C2912215
:0703AE00C291D290D291220E
:0B039C00209106D290C290C322D32211
:10030A00E4FEC2011203A7EF30E704D2918002C2D1
:10031A0091C290D290C290EF25E0FF0EBE08E8127B
:08032A00039C5002D201A20164
:0103320022A8
:03025300FD7F48E4
:10025600E4FEC2021203A7EF30E704D2918002C285
:1002660091C290D290C290EF25E0FF0EBE08E81230
:10027600039C5002D202AF05E4FEEF30E704D291B0
:100286008002C291C290D290C290EF25E0FF0EBECE
:0E02960008E812039C5002D2021203AEA2022C
:0102A4002237
:02036100AE05E7
:10036300C201EF4E4B45191202539201300102D3E1
:0203730022C3A3
:010375002265
:10037600E4F516C201EF9003BB93FF1202569201F9
:02038600A201D2
:010388002252
:02038900AE05BF
:10038B00C203EF4E4B1202539203300302D322C32C
:01039B00223F
:02033300AE0515
:10033500C204EF4E4B4401FD7F4812025692043031
:050345000402D322C3F5
:01034A002290
:0602DA008F168D178B1832
:1002E0001203A77F4F12030AE433F51A12039CE4AA
:1002F000FFD290EC25E0FC3091010CC2900FBF08BA
:09030000F012039C1203AEAF04DD
:0103090022D1
:10034B0020010204081040803F065B4F666D7D075D
:06035B007F6F3F065B4FBF
:0603B500011D00011C0007
:0202A500A907A7
:1002A700E4FFFEE9FDC3EF9D7480F86E985023E4E8
:1002B700FDFCE4FBFA0BBB00010AEB645A4A70F53C
:1002C7000DBD00010CED64324C70E70FBF00010E4D
:0202D70080D1D4
:0102D9002202
:1000F900E4F508F50EF50FF510F51178127C00FD01
:100109007BFF7A03795DFE7F041200D3C2007F0A68
:100119001202A5E4F5807F0A1202A57580FFE4F5B5
:1001290090751901AB1CFDAF1D1203619200E4F536
:100139000DE50D04FF7DFF1203769200050DE50D17
:10014900C3940440EC7F0A1202A5E4F50DE50D0401
:10015900FFE4FD1203769200050DE50DC3940440FA
:10016900EC7F0A1202A5AB1CE4FDAF1D1202DA8F67
:1001790008E508B48905750C018021E508B49B05DB
:10018900750C028017E508B4AD05750C03800DE503
:1001990008B4BF05750C048003E4F50CE4F50DE51E
:1001A9000DC3940450C0E50D04FF7409250DF8E64C
:0E01B90090035393FD1203769200050D80E132
:030000000201C733
:0C01C700787FE4F6D8FD75812002020E5E
:10000300E709F608DFFA8046E709F208DFFA803EDF
:1000130088828C83E709F0A3DFFA8032E309F608CC
:10002300DFFA8078E309F208DFFA807088828C8334
:10003300E309F0A3DFFA806489828A83E0A3F608E8
:10004300DFFA805889828A83E0A3F208DFFA804CC2
:1000530080D280FA80C680D4806980F28033801099
:1000630080A680EA809A80A880DA80E280CA803302
:1000730089828A83ECFAE493A3C8C582C8CCC5837A
:10008300CCF0A3C8C582C8CCC583CCDFE9DEE7804A
:100093000D89828A83E493A3F608DFF9ECFAA9F0C9
:1000A300EDFB2289828A83ECFAE0A3C8C582C8CC1F
:1000B300C583CCF0A3C8C582C8CCC583CCDFEADE38
:1000C300E880DB89828A83E493A3F208DFF980CC9A
:1000D30088F0EF60010E4E60C388F0ED2402B40493
:1000E3000050B9F582EB2402B4040050AF2323453A
:0600F3008223900053730C
:1001D3000200F9E493A3F8E493A34003F68001F249
:1001E30008DFF48029E493A3F85407240CC8C3332D
:1001F300C4540F4420C8834004F456800146F6DFFC
:10020300E4800B01020408102040809003B5E47ED3
:10021300019360BCA3FF543F30E509541FFEE493F0
:10022300A360010ECF54C025E060A840B8E493A3B7
:10023300FAE493A3F8E493A3C8C582C8CAC583CAE2
:10024300F0A3C8C582C8CAC583CADFE9DEE780BE9A
:0103BB000041
:00000001FF
