:030000000201F00A
:0C01F000787FE4F6D8FD7581200202370C
:10031B0020010204081040803F065B4F666D7D078D
:06032B007F6F3F065B4FEF
:0603770001160001150053
:0202CE00A9077E
:1002D000E4FFFEE9FDC3EF9D7480F86E985023E4BF
:1002E000FDFCE4FBFA0BBB00010AEB645A4A70F513
:1002F0000DBD00010CED64324C70E70FBF00010E24
:0203000080D1AA
:0103020022D8
:10000300E4F509F50AF50BF50C780D7C00FD7BFF93
:100013007A03792DFE7F041201CAC2007F0A1202FD
:10002300CEE4F5807F0A1202CE7580FFE4F5907569
:100033001401AB15E4FDAF161203319200E4F50889
:10004300E50804FF7DFF12034692000508E508C397
:10005300940440EC7F0A1202CEE4F50CE4F508E5C3
:100063000804FFE50C90031B93FD12034692000561
:1000730008E508C3940440E77F0A1202CE050CE5A5
:100083000CD3940940D6E4F50CE4F508E50804FF25
:10009300E50C90032393FD12034692000508E5083F
:1000A300C3940440E77F0A1202CE050CE50CD394F7
:1000B3000940D6E4F508E50804FF740D2508F8E6C1
:1000C300FD12034692000508E508C3940440E77F48
:1000D3000A1202CEAB15E4FDAF1612035992007F4C
:1000E3000A1202CEAB15E4FDAF1612030392007F92
:0700F3000A1202CE020032E6
:04038C00686A6C6EC1
:07037E00D291D290C291223E
:07038500C291D290D2912237
:0B036C00209106D290C290C322D32241
:03027C00FD7F48BB
:10027F00E4FEC20212037EEF30E704D2918002C285
:10028F0091C290D290C290EF25E0FF0EBE08E81207
:10029F00036C5002D202AF05E4FEEF30E704D291B7
:1002AF008002C291C290D290C290EF25E0FF0EBEA5
:0E02BF0008E812036C5002D202120385A2025C
:0102CD00220E
:02033100AE0517
:10033300C201EF4E4B451412027C9201300102D3ED
:0203430022C3D3
:010345002295
:10034600E4F511C201EF90038B93FF12027F920135
:02035600A20102
:010358002282
:02035900AE05EF
:10035B00C201EF4E4B12027C9201300102D322C339
:01036B00226F
:02030300AE0545
:10030500C201EF4E4B4401FD7F4812027F9201303E
:050315000102D322C328
:01031A0022C0
:1001FC00020003E493A3F8E493A34003F68001F216
:10020C0008DFF48029E493A3F85407240CC8C33303
:10021C00C4540F4420C8834004F456800146F6DFD2
:10022C00E4800B0102040810204080900377E47EE8
:10023C00019360BCA3FF543F30E509541FFEE493C7
:10024C00A360010ECF54C025E060A840B8E493A38E
:10025C00FAE493A3F8E493A3C8C582C8CAC583CAB9
:10026C00F0A3C8C582C8CAC583CADFE9DEE780BE71
:01037D00007F
:1000FA00E709F608DFFA8046E709F208DFFA803EE8
:10010A0088828C83E709F0A3DFFA8032E309F608D4
:10011A00DFFA8078E309F208DFFA807088828C833C
:10012A00E309F0A3DFFA806489828A83E0A3F608F0
:10013A00DFFA805889828A83E0A3F208DFFA804CCA
:10014A0080D280FA80C680D4806980F280338010A1
:10015A0080A680EA809A80A880DA80E280CA80330A
:10016A0089828A83ECFAE493A3C8C582C8CCC58382
:10017A00CCF0A3C8C582C8CCC583CCDFE9DEE78052
:10018A000D89828A83E493A3F608DFF9ECFAA9F0D1
:10019A00EDFB2289828A83ECFAE0A3C8C582C8CC27
:1001AA00C583CCF0A3C8C582C8CCC583CCDFEADE40
:1001BA00E880DB89828A83E493A3F208DFF980CCA2
:1001CA0088F0EF60010E4E60C388F0ED2402B4049B
:1001DA000050B9F582EB2402B4040050AF23234542
:0601EA00822390014A731C
:00000001FF
